{
  "_format": "hh-sol-artifact-1",
  "contractName": "Escrow",
  "sourceName": "contracts/escrow/Escrow.sol",
  "abi": [
    {
      "anonymous": false,
      "inputs": [
        {
          "indexed": true,
          "internalType": "address",
          "name": "payer",
          "type": "address"
        },
        {
          "indexed": true,
          "internalType": "address",
          "name": "payee",
          "type": "address"
        },
        {
          "indexed": false,
          "internalType": "uint256",
          "name": "maxLockedAmount",
          "type": "uint256"
        },
        {
          "indexed": false,
          "internalType": "uint256",
          "name": "maxLockSeconds",
          "type": "uint256"
        },
        {
          "indexed": false,
          "internalType": "uint256",
          "name": "maxLockCounts",
          "type": "uint256"
        }
      ],
      "name": "Auth",
      "type": "event"
    },
    {
      "anonymous": false,
      "inputs": [
        {
          "indexed": true,
          "internalType": "address",
          "name": "payee",
          "type": "address"
        },
        {
          "indexed": false,
          "internalType": "uint256",
          "name": "jobId",
          "type": "uint256"
        },
        {
          "indexed": false,
          "internalType": "address",
          "name": "token",
          "type": "address"
        },
        {
          "indexed": true,
          "internalType": "address",
          "name": "payer",
          "type": "address"
        },
        {
          "indexed": false,
          "internalType": "uint256",
          "name": "amount",
          "type": "uint256"
        }
      ],
      "name": "Canceled",
      "type": "event"
    },
    {
      "anonymous": false,
      "inputs": [
        {
          "indexed": true,
          "internalType": "address",
          "name": "payee",
          "type": "address"
        },
        {
          "indexed": false,
          "internalType": "uint256",
          "name": "jobId",
          "type": "uint256"
        },
        {
          "indexed": false,
          "internalType": "address",
          "name": "token",
          "type": "address"
        },
        {
          "indexed": true,
          "internalType": "address",
          "name": "payer",
          "type": "address"
        },
        {
          "indexed": false,
          "internalType": "uint256",
          "name": "amount",
          "type": "uint256"
        },
        {
          "indexed": false,
          "internalType": "bytes",
          "name": "proof",
          "type": "bytes"
        }
      ],
      "name": "Claimed",
      "type": "event"
    },
    {
      "anonymous": false,
      "inputs": [
        {
          "indexed": true,
          "internalType": "address",
          "name": "payer",
          "type": "address"
        },
        {
          "indexed": false,
          "internalType": "address",
          "name": "token",
          "type": "address"
        },
        {
          "indexed": false,
          "internalType": "uint256",
          "name": "amount",
          "type": "uint256"
        }
      ],
      "name": "Deposit",
      "type": "event"
    },
    {
      "anonymous": false,
      "inputs": [
        {
          "indexed": false,
          "internalType": "address",
          "name": "payer",
          "type": "address"
        },
        {
          "indexed": false,
          "internalType": "address",
          "name": "payee",
          "type": "address"
        },
        {
          "indexed": false,
          "internalType": "uint256",
          "name": "jobId",
          "type": "uint256"
        },
        {
          "indexed": false,
          "internalType": "uint256",
          "name": "amount",
          "type": "uint256"
        },
        {
          "indexed": false,
          "internalType": "uint256",
          "name": "expiry",
          "type": "uint256"
        },
        {
          "indexed": false,
          "internalType": "address",
          "name": "token",
          "type": "address"
        }
      ],
      "name": "Lock",
      "type": "event"
    },
    {
      "anonymous": false,
      "inputs": [
        {
          "indexed": true,
          "internalType": "address",
          "name": "payer",
          "type": "address"
        },
        {
          "indexed": false,
          "internalType": "address",
          "name": "token",
          "type": "address"
        },
        {
          "indexed": false,
          "internalType": "uint256",
          "name": "amount",
          "type": "uint256"
        }
      ],
      "name": "Withdraw",
      "type": "event"
    },
    {
      "inputs": [
        {
          "internalType": "address",
          "name": "token",
          "type": "address"
        },
        {
          "internalType": "address",
          "name": "payee",
          "type": "address"
        },
        {
          "internalType": "uint256",
          "name": "maxLockedAmount",
          "type": "uint256"
        },
        {
          "internalType": "uint256",
          "name": "maxLockSeconds",
          "type": "uint256"
        },
        {
          "internalType": "uint256",
          "name": "maxLockCounts",
          "type": "uint256"
        }
      ],
      "name": "authorize",
      "outputs": [],
      "stateMutability": "nonpayable",
      "type": "function"
    },
    {
      "inputs": [
        {
          "internalType": "uint256",
          "name": "jobId",
          "type": "uint256"
        },
        {
          "internalType": "address",
          "name": "token",
          "type": "address"
        },
        {
          "internalType": "address",
          "name": "payer",
          "type": "address"
        },
        {
          "internalType": "address",
          "name": "payee",
          "type": "address"
        }
      ],
      "name": "cancelExpiredLock",
      "outputs": [],
      "stateMutability": "nonpayable",
      "type": "function"
    },
    {
      "inputs": [
        {
          "internalType": "uint256[]",
          "name": "jobId",
          "type": "uint256[]"
        },
        {
          "internalType": "address[]",
          "name": "token",
          "type": "address[]"
        },
        {
          "internalType": "address[]",
          "name": "payer",
          "type": "address[]"
        },
        {
          "internalType": "address[]",
          "name": "payee",
          "type": "address[]"
        }
      ],
      "name": "cancelExpiredLocks",
      "outputs": [],
      "stateMutability": "nonpayable",
      "type": "function"
    },
    {
      "inputs": [
        {
          "internalType": "uint256",
          "name": "jobId",
          "type": "uint256"
        },
        {
          "internalType": "address",
          "name": "token",
          "type": "address"
        },
        {
          "internalType": "address",
          "name": "payer",
          "type": "address"
        },
        {
          "internalType": "uint256",
          "name": "amount",
          "type": "uint256"
        },
        {
          "internalType": "bytes",
          "name": "proof",
          "type": "bytes"
        }
      ],
      "name": "claimLock",
      "outputs": [],
      "stateMutability": "nonpayable",
      "type": "function"
    },
    {
      "inputs": [
        {
          "internalType": "uint256",
          "name": "jobId",
          "type": "uint256"
        },
        {
          "internalType": "address",
          "name": "token",
          "type": "address"
        },
        {
          "internalType": "address",
          "name": "payer",
          "type": "address"
        },
        {
          "internalType": "uint256",
          "name": "amount",
          "type": "uint256"
        },
        {
          "internalType": "bytes",
          "name": "proof",
          "type": "bytes"
        }
      ],
      "name": "claimLockAndWithdraw",
      "outputs": [],
      "stateMutability": "nonpayable",
      "type": "function"
    },
    {
      "inputs": [
        {
          "internalType": "uint256[]",
          "name": "jobId",
          "type": "uint256[]"
        },
        {
          "internalType": "address[]",
          "name": "token",
          "type": "address[]"
        },
        {
          "internalType": "address[]",
          "name": "payer",
          "type": "address[]"
        },
        {
          "internalType": "uint256[]",
          "name": "amount",
          "type": "uint256[]"
        },
        {
          "internalType": "bytes[]",
          "name": "proof",
          "type": "bytes[]"
        }
      ],
      "name": "claimLocks",
      "outputs": [],
      "stateMutability": "nonpayable",
      "type": "function"
    },
    {
      "inputs": [
        {
          "internalType": "uint256[]",
          "name": "jobId",
          "type": "uint256[]"
        },
        {
          "internalType": "address[]",
          "name": "token",
          "type": "address[]"
        },
        {
          "internalType": "address[]",
          "name": "payer",
          "type": "address[]"
        },
        {
          "internalType": "uint256[]",
          "name": "amount",
          "type": "uint256[]"
        },
        {
          "internalType": "bytes[]",
          "name": "proof",
          "type": "bytes[]"
        }
      ],
      "name": "claimLocksAndWithdraw",
      "outputs": [],
      "stateMutability": "nonpayable",
      "type": "function"
    },
    {
      "inputs": [
        {
          "internalType": "uint256",
          "name": "jobId",
          "type": "uint256"
        },
        {
          "internalType": "address",
          "name": "token",
          "type": "address"
        },
        {
          "internalType": "address",
          "name": "payer",
          "type": "address"
        },
        {
          "internalType": "uint256",
          "name": "amount",
          "type": "uint256"
        },
        {
          "internalType": "uint256",
          "name": "expiry",
          "type": "uint256"
        }
      ],
      "name": "createLock",
      "outputs": [],
      "stateMutability": "nonpayable",
      "type": "function"
    },
    {
      "inputs": [
        {
          "internalType": "address",
          "name": "token",
          "type": "address"
        },
        {
          "internalType": "uint256",
          "name": "amount",
          "type": "uint256"
        }
      ],
      "name": "deposit",
      "outputs": [],
      "stateMutability": "nonpayable",
      "type": "function"
    },
    {
      "inputs": [
        {
          "internalType": "address",
          "name": "token",
          "type": "address"
        },
        {
          "internalType": "address",
          "name": "payer",
          "type": "address"
        },
        {
          "internalType": "address",
          "name": "payee",
          "type": "address"
        }
      ],
      "name": "getAuthorizations",
      "outputs": [
        {
          "components": [
            {
              "internalType": "address",
              "name": "payee",
              "type": "address"
            },
            {
              "internalType": "uint256",
              "name": "maxLockedAmount",
              "type": "uint256"
            },
            {
              "internalType": "uint256",
              "name": "currentLockedAmount",
              "type": "uint256"
            },
            {
              "internalType": "uint256",
              "name": "maxLockSeconds",
              "type": "uint256"
            },
            {
              "internalType": "uint256",
              "name": "maxLockCounts",
              "type": "uint256"
            },
            {
              "internalType": "uint256",
              "name": "currentLocks",
              "type": "uint256"
            }
          ],
          "internalType": "struct Escrow.auth[]",
          "name": "",
          "type": "tuple[]"
        }
      ],
      "stateMutability": "view",
      "type": "function"
    },
    {
      "inputs": [
        {
          "internalType": "address",
          "name": "token",
          "type": "address"
        }
      ],
      "name": "getFunds",
      "outputs": [
        {
          "components": [
            {
              "internalType": "uint256",
              "name": "available",
              "type": "uint256"
            },
            {
              "internalType": "uint256",
              "name": "locked",
              "type": "uint256"
            }
          ],
          "internalType": "struct Escrow.userFunds",
          "name": "",
          "type": "tuple"
        }
      ],
      "stateMutability": "view",
      "type": "function"
    },
    {
      "inputs": [
        {
          "internalType": "address",
          "name": "token",
          "type": "address"
        },
        {
          "internalType": "address",
          "name": "payer",
          "type": "address"
        },
        {
          "internalType": "address",
          "name": "payee",
          "type": "address"
        }
      ],
      "name": "getLocks",
      "outputs": [
        {
          "components": [
            {
              "internalType": "uint256",
              "name": "jobId",
              "type": "uint256"
            },
            {
              "internalType": "address",
              "name": "payer",
              "type": "address"
            },
            {
              "internalType": "address",
              "name": "payee",
              "type": "address"
            },
            {
              "internalType": "uint256",
              "name": "amount",
              "type": "uint256"
            },
            {
              "internalType": "uint256",
              "name": "expiry",
              "type": "uint256"
            },
            {
              "internalType": "address",
              "name": "token",
              "type": "address"
            }
          ],
          "internalType": "struct Escrow.lock[]",
          "name": "",
          "type": "tuple[]"
        }
      ],
      "stateMutability": "view",
      "type": "function"
    },
    {
      "inputs": [
        {
          "internalType": "address",
          "name": "payer",
          "type": "address"
        },
        {
          "internalType": "address",
          "name": "token",
          "type": "address"
        }
      ],
      "name": "getUserFunds",
      "outputs": [
        {
          "components": [
            {
              "internalType": "uint256",
              "name": "available",
              "type": "uint256"
            },
            {
              "internalType": "uint256",
              "name": "locked",
              "type": "uint256"
            }
          ],
          "internalType": "struct Escrow.userFunds",
          "name": "",
          "type": "tuple"
        }
      ],
      "stateMutability": "view",
      "type": "function"
    },
    {
      "inputs": [
        {
          "internalType": "address[]",
          "name": "token",
          "type": "address[]"
        },
        {
          "internalType": "uint256[]",
          "name": "amount",
          "type": "uint256[]"
        }
      ],
      "name": "withdraw",
      "outputs": [],
      "stateMutability": "nonpayable",
      "type": "function"
    }
  ],
  "bytecode": "0x608060405234801561001057600080fd5b5060016000556137fa806100256000396000f3fe608060405234801561001057600080fd5b50600436106100ea5760003560e01c8063842d2c201161008c578063dc697a5a11610066578063dc697a5a14610226578063de6d6d9614610246578063decebbce14610259578063e46c3b29146102b857600080fd5b8063842d2c20146101ed57806389464ccf14610200578063b24adc041461021357600080fd5b806347e7ef24116100c857806347e7ef241461019457806357d92e45146101a757806378a90e19146101ba5780637d3d2336146101cd57600080fd5b806315fac1cc146100ef5780633a8ae44f146101045780633f918c0314610181575b600080fd5b6101026100fd366004612ec8565b6102cb565b005b610161610112366004612f15565b604080518082018252600080825260209182018190526001600160a01b039485168152600180835283822094909516815292815291819020815180830190925280548252909201549082015290565b604080518251815260209283015192810192909252015b60405180910390f35b61010261018f366004612f48565b6105dd565b6101026101a2366004612f95565b610601565b6101026101b5366004613076565b610824565b6101026101c836600461324e565b610843565b6101e06101db366004613313565b610a43565b6040516101789190613356565b6101026101fb3660046133dc565b610d94565b61010261020e36600461342a565b611555565b61010261022136600461324e565b611631565b610239610234366004613313565b6116b4565b60405161017891906134d7565b61010261025436600461354b565b6119a4565b6101616102673660046135af565b6040805180820190915260008082526020820152503360009081526001602081815260408084206001600160a01b039590951684529381529183902083518085019094528054845201549082015290565b6101026102c6366004613076565b611a27565b6102d3611a6b565b6001600160a01b0385166103025760405162461bcd60e51b81526004016102f9906135ca565b60405180910390fd5b6001600160a01b0384166103485760405162461bcd60e51b815260206004820152600d60248201526c496e76616c696420706179656560981b60448201526064016102f9565b3360009081526002602090815260408083206001600160a01b03891684529091528120545b808210156104c9573360009081526002602090815260408083206001600160a01b038b811685529252909120805491881691849081106103af576103af6135f1565b60009182526020909120600690910201546001600160a01b031614156104b7573360009081526002602090815260408083206001600160a01b038b1684529091529020805486919084908110610407576104076135f1565b60009182526020808320600160069093020191909101929092553381526002825260408082206001600160a01b038b16835290925220805485919084908110610452576104526135f1565b60009182526020808320600360069093020191909101929092553381526002825260408082206001600160a01b038b1683529092522080548491908490811061049d5761049d6135f1565b9060005260206000209060060201600401819055506104c9565b816104c18161361d565b92505061036d565b8082141561057c573360009081526002602081815260408084206001600160a01b038c81168652908352818520825160c0810184528c831681528085018c8152938101878152606082018c8152608083018c815260a084018a8152855460018082018855968c5298909a209351600690980290930180546001600160a01b031916979095169690961784559351918301919091559151938101939093559051600383015551600482015590516005909101555b60408051868152602081018690529081018490526001600160a01b0387169033907f118cb6c6a02e26bfdb39cab8d70573499942c4ee3f0d7616d3c4100fe9163d9d9060600160405180910390a350506105d66001600055565b5050505050565b6105e5611a6b565b6105f184848484611ac5565b6105fb6001600055565b50505050565b610609611a6b565b6001600160a01b0382166106575760405162461bcd60e51b8152602060048201526015602482015274496e76616c696420746f6b656e206164647265737360581b60448201526064016102f9565b3360009081526001602090815260408083206001600160a01b03861684529091528120805483929061068a908490613638565b9091555050604080516001600160a01b03841681526020810183905233917f5548c837ab068cf56a2c2479df0882a4922fd203edb7517321831d95078c5f62910160405180910390a26040516370a0823160e01b81523060048201526000906001600160a01b038416906370a0823190602401602060405180830381865afa15801561071a573d6000803e3d6000fd5b505050506040513d601f19601f8201168201806040525081019061073e9190613650565b90506107556001600160a01b038416333085612473565b61075f81836124de565b6040516370a0823160e01b81523060048201526001600160a01b038516906370a0823190602401602060405180830381865afa1580156107a3573d6000803e3d6000fd5b505050506040513d601f19601f820116820180604052508101906107c79190613650565b10156108155760405162461bcd60e51b815260206004820152601a60248201527f5472616e7366657220616d6f756e7420697320746f6f206c6f7700000000000060448201526064016102f9565b506108206001600055565b5050565b61082c611a6b565b61083985858585856124f1565b6105d66001600055565b61084b611a6b565b8351855114801561085d575082518551145b801561086a575081518551145b8015610877575080518551145b6108935760405162461bcd60e51b81526004016102f990613669565b60005b855181101561093b576109298682815181106108b4576108b46135f1565b60200260200101518683815181106108ce576108ce6135f1565b60200260200101518684815181106108e8576108e86135f1565b6020026020010151868581518110610902576109026135f1565b602002602001015186868151811061091c5761091c6135f1565b60200260200101516124f1565b806109338161361d565b915050610896565b5060005b8451811015610a38573360009081526001602052604081208651829088908590811061096d5761096d6135f1565b60200260200101516001600160a01b03166001600160a01b03168152602001908152602001600020600001541115610a2657610a268582815181106109b4576109b46135f1565b602002602001015160016000336001600160a01b03166001600160a01b0316815260200190815260200160002060008885815181106109f5576109f56135f1565b60200260200101516001600160a01b03166001600160a01b0316815260200190815260200160002060000154612b5b565b80610a308161361d565b91505061093f565b506105d66001600055565b600354606090600090815b81811015610b5c576001600160a01b0387161580610a9d575060038181548110610a7a57610a7a6135f1565b60009182526020909120600560069092020101546001600160a01b038881169116145b80610aea57506001600160a01b0385161580610aea575060038181548110610ac757610ac76135f1565b60009182526020909120600260069092020101546001600160a01b038681169116145b80610b3757506001600160a01b0386161580610b37575060038181548110610b1457610b146135f1565b60009182526020909120600160069092020101546001600160a01b038781169116145b15610b4a5782610b468161361d565b9350505b80610b548161361d565b915050610a4e565b5060008267ffffffffffffffff811115610b7857610b78612fbf565b604051908082528060200260200182016040528015610bd857816020015b6040805160c08101825260008082526020808301829052928201819052606082018190526080820181905260a08201528252600019909201910181610b965790505b5090506000925060005b82811015610d89576001600160a01b0388161580610c31575060038181548110610c0e57610c0e6135f1565b60009182526020909120600560069092020101546001600160a01b038981169116145b80610c7e57506001600160a01b0386161580610c7e575060038181548110610c5b57610c5b6135f1565b60009182526020909120600260069092020101546001600160a01b038781169116145b80610ccb57506001600160a01b0387161580610ccb575060038181548110610ca857610ca86135f1565b60009182526020909120600160069092020101546001600160a01b038881169116145b15610d775760038181548110610ce357610ce36135f1565b60009182526020918290206040805160c08101825260069093029091018054835260018101546001600160a01b0390811694840194909452600281015484169183019190915260038101546060830152600481015460808301526005015490911660a08201528251839086908110610d5d57610d5d6135f1565b60200260200101819052508380610d739061361d565b9450505b80610d818161361d565b915050610be2565b509695505050505050565b610d9c611a6b565b6001600160a01b038316610dc25760405162461bcd60e51b81526004016102f990613690565b6001600160a01b038416610de85760405162461bcd60e51b81526004016102f9906135ca565b60008211610e295760405162461bcd60e51b815260206004820152600e60248201526d125b9d985b1a5908185b5bdd5b9d60921b60448201526064016102f9565b60008511610e695760405162461bcd60e51b815260206004820152600d60248201526c125b9d985b1a59081a9bd89259609a1b60448201526064016102f9565b6040805160c08101825260008082526020808301829052828401829052606083018290526080830182905260a083018290526001600160a01b038781168352600182528483209089168352905291822054909190841115610f0c5760405162461bcd60e51b815260206004820181905260248201527f506179657220646f6573206e6f74206861766520656e6f7567682066756e647360448201526064016102f9565b506001600160a01b0380851660009081526002602090815260408083209389168352929052908120545b80821015611044576001600160a01b038087166000908152600260209081526040808320938b16835292905220805483908110610f7557610f756135f1565b60009182526020909120600690910201546001600160a01b0316331415611032576001600160a01b038087166000908152600260209081526040808320938b16835292905220805483908110610fcd57610fcd6135f1565b60009182526020918290206040805160c081018252600690930290910180546001600160a01b03168352600181015493830193909352600283015490820152600382015460608201526004820154608082015260059091015460a08201529250611044565b8161103c8161361d565b925050610f36565b82516001600160a01b0316331461108d5760405162461bcd60e51b815260206004820152600d60248201526c139bc8185d5d1a08199bdd5b99609a1b60448201526064016102f9565b82606001518411156110d35760405162461bcd60e51b815260206004820152600f60248201526e08af0e0d2e4f240e8dede40d0d2ced608b1b60448201526064016102f9565b82602001518511156111195760405162461bcd60e51b815260206004820152600f60248201526e082dadeeadce840e8dede40d0d2ced608b1b60448201526064016102f9565b826020015185846040015161112e9190613638565b111561117c5760405162461bcd60e51b815260206004820152601760248201527f45786365656473206d61784c6f636b6564416d6f756e7400000000000000000060448201526064016102f9565b82608001518360a00151106111cb5760405162461bcd60e51b815260206004820152601560248201527445786365656473206d61784c6f636b436f756e747360581b60448201526064016102f9565b5060035460005b818110156112dd57866001600160a01b0316600382815481106111f7576111f76135f1565b60009182526020909120600160069092020101546001600160a01b03161480156112585750336001600160a01b031660038281548110611239576112396135f1565b60009182526020909120600260069092020101546001600160a01b0316145b801561128757508860038281548110611273576112736135f1565b906000526020600020906006020160000154145b156112cb5760405162461bcd60e51b81526020600482015260146024820152734a6f62496420616c72656164792065786973747360601b60448201526064016102f9565b806112d58161361d565b9150506111d2565b506001600160a01b038087166000908152600260209081526040808320938b16835292905220805486919084908110611318576113186135f1565b906000526020600020906006020160020160008282546113389190613638565b90915550506001600160a01b038087166000908152600260209081526040808320938b1683529290522080546001919084908110611378576113786135f1565b906000526020600020906006020160050160008282546113989190613638565b90915550506001600160a01b038087166000908152600160209081526040808320938b16835292905290812080548792906113d49084906136b7565b90915550506001600160a01b038087166000908152600160208181526040808420948c1684529390529181209091018054879290611413908490613638565b9250508190555060036040518060c001604052808a8152602001886001600160a01b03168152602001336001600160a01b03168152602001878152602001864261145d9190613638565b81526001600160a01b038a8116602092830181905284546001808201875560009687529584902085516006909202019081558484015195810180549684166001600160a01b03199788161790556040808601516002830180549186169189169190911790556060808701516003840155608080880151600485015560a0978801516005909401805494871694909916939093179097558051938d16845233948401949094529282018d9052938101899052908101879052908101919091527fb746b0421b0b98debe76bb312ec9fb701603af22ddb107f7e639b0187e4ff8809060c00160405180910390a15050506105d66001600055565b61155d611a6b565b8251845114801561156f575081518451145b801561157c575080518451145b6115985760405162461bcd60e51b81526004016102f990613669565b60005b8451811015611626576116148582815181106115b9576115b96135f1565b60200260200101518583815181106115d3576115d36135f1565b60200260200101518584815181106115ed576115ed6135f1565b6020026020010151858581518110611607576116076135f1565b6020026020010151611ac5565b8061161e8161361d565b91505061159b565b506105fb6001600055565b611639611a6b565b8351855114801561164b575082518551145b8015611658575081518551145b8015611665575080518551145b6116815760405162461bcd60e51b81526004016102f990613669565b60005b8551811015610a38576116a28682815181106108b4576108b46135f1565b806116ac8161361d565b915050611684565b60606001600160a01b0383166116dc5760405162461bcd60e51b81526004016102f990613690565b6001600160a01b0384166117025760405162461bcd60e51b81526004016102f9906135ca565b6001600160a01b038084166000908152600260209081526040808320938816835292905290812054815b818110156117c1576001600160a01b038516158061179c57506001600160a01b038087166000908152600260209081526040808320938b1683529290522080548290811061177c5761177c6135f1565b60009182526020909120600690910201546001600160a01b038681169116145b156117af57826117ab8161361d565b9350505b806117b98161361d565b91505061172c565b5060008267ffffffffffffffff8111156117dd576117dd612fbf565b60405190808252806020026020018201604052801561185057816020015b61183d6040518060c0016040528060006001600160a01b0316815260200160008152602001600081526020016000815260200160008152602001600081525090565b8152602001906001900390816117fb5790505b5090506000925060005b82811015610d89576001600160a01b03861615806118ca57506001600160a01b038088166000908152600260209081526040808320938c168352929052208054829081106118aa576118aa6135f1565b60009182526020909120600690910201546001600160a01b038781169116145b15611992576001600160a01b038088166000908152600260209081526040808320938c16835292905220805482908110611906576119066135f1565b60009182526020918290206040805160c081018252600690930290910180546001600160a01b03168352600181015493830193909352600283015490820152600382015460608201526004820154608082015260059091015460a08201528251839086908110611978576119786135f1565b6020026020010181905250838061198e9061361d565b9450505b8061199c8161361d565b91505061185a565b6119ac611a6b565b80518251146119cd5760405162461bcd60e51b81526004016102f990613669565b60005b825181101561081557611a158382815181106119ee576119ee6135f1565b6020026020010151838381518110611a0857611a086135f1565b6020026020010151612b5b565b80611a1f8161361d565b9150506119d0565b611a2f611a6b565b611a3c85858585856124f1565b3360009081526001602090815260408083206001600160a01b0388168452909152902054610839908590612b5b565b60026000541415611abe5760405162461bcd60e51b815260206004820152601f60248201527f5265656e7472616e637947756172643a207265656e7472616e742063616c6c0060448201526064016102f9565b6002600055565b60035460009081905b80831015611c43574260038481548110611aea57611aea6135f1565b906000526020600020906006020160040154108015611c1e5750861580611b34575060038381548110611b1f57611b1f6135f1565b90600052602060002090600602016000015487145b8015611b8257506001600160a01b0386161580611b82575060038381548110611b5f57611b5f6135f1565b60009182526020909120600560069092020101546001600160a01b038781169116145b8015611bd057506001600160a01b0385161580611bd0575060038381548110611bad57611bad6135f1565b60009182526020909120600160069092020101546001600160a01b038681169116145b8015611c1e57506001600160a01b0384161580611c1e575060038381548110611bfb57611bfb6135f1565b60009182526020909120600260069092020101546001600160a01b038581169116145b15611c315781611c2d8161361d565b9250505b82611c3b8161361d565b935050611ace565b81611c50575050506105fb565b60008267ffffffffffffffff811115611c6b57611c6b612fbf565b604051908082528060200260200182016040528015611c94578160200160208202803683370190505b50905060008094505b8285101561230c574260038681548110611cb957611cb96135f1565b906000526020600020906006020160040154108015611ded5750881580611d03575060038581548110611cee57611cee6135f1565b90600052602060002090600602016000015489145b8015611d5157506001600160a01b0388161580611d51575060038581548110611d2e57611d2e6135f1565b60009182526020909120600560069092020101546001600160a01b038981169116145b8015611d9f57506001600160a01b0387161580611d9f575060038581548110611d7c57611d7c6135f1565b60009182526020909120600160069092020101546001600160a01b038881169116145b8015611ded57506001600160a01b0386161580611ded575060038581548110611dca57611dca6135f1565b60009182526020909120600260069092020101546001600160a01b038781169116145b156122fa5760006002600060038881548110611e0b57611e0b6135f1565b60009182526020808320600160069093020191909101546001600160a01b0316835282019290925260400181206003805491929189908110611e4f57611e4f6135f1565b60009182526020808320600560069093020191909101546001600160a01b0316835282019290925260400181205491505b81811015611ffa5760038781548110611e9b57611e9b6135f1565b6000918252602080832060026006909302018201546001600160a01b038d8116855292825260408085208f851686529092529220805491909216919083908110611ee757611ee76135f1565b60009182526020909120600690910201546001600160a01b03161415611fe85760038781548110611f1a57611f1a6135f1565b60009182526020808320600360069093020191909101546001600160a01b03808d168452600283526040808520918f16855292529120805483908110611f6257611f626135f1565b90600052602060002090600602016002016000828254611f8291906136b7565b90915550506001600160a01b03808a166000908152600260209081526040808320938e1683529290522080546001919083908110611fc257611fc26135f1565b90600052602060002090600602016005016000828254611fe291906136b7565b90915550505b80611ff28161361d565b915050611e80565b506003868154811061200e5761200e6135f1565b9060005260206000209060060201600301546001600060038981548110612037576120376135f1565b60009182526020808320600160069093020191909101546001600160a01b031683528201929092526040018120600380549192918a90811061207b5761207b6135f1565b60009182526020808320600560069093020191909101546001600160a01b03168352820192909252604001812080549091906120b8908490613638565b909155505060038054879081106120d1576120d16135f1565b90600052602060002090600602016003015460016000600389815481106120fa576120fa6135f1565b60009182526020808320600160069093020191909101546001600160a01b031683528201929092526040018120600380549192918a90811061213e5761213e6135f1565b60009182526020808320600560069093020191909101546001600160a01b031683528201929092526040018120600101805490919061217e9084906136b7565b90915550506003805487908110612197576121976135f1565b6000918252602090912060016006909202010154600380546001600160a01b0390921691889081106121cb576121cb6135f1565b906000526020600020906006020160020160009054906101000a90046001600160a01b03166001600160a01b03167f5bcb66e310a3be233290f5d61fba34fe58a0e8045b4678714af2c7986f3a5e506003898154811061222d5761222d6135f1565b90600052602060002090600602016000015460038a81548110612252576122526135f1565b906000526020600020906006020160050160009054906101000a90046001600160a01b031660038b8154811061228a5761228a6135f1565b9060005260206000209060060201600301546040516122c5939291909283526001600160a01b03919091166020830152604082015260600190565b60405180910390a3858383815181106122e0576122e06135f1565b6020908102919091010152816122f58161361d565b925050505b846123048161361d565b955050611c9d565b8151600095505b80861015612467576003805461232b906001906136b7565b8154811061233b5761233b6135f1565b9060005260206000209060060201600384888151811061235d5761235d6135f1565b602002602001015181548110612375576123756135f1565b60009182526020909120825460069092020190815560018083015490820180546001600160a01b03199081166001600160a01b03938416179091556002808501549084018054831691841691909117905560038085015481850155600480860154908501556005948501549490930180549091169390911692909217909155805480612403576124036136ce565b6000828152602081206006600019909301928302018181556001810180546001600160a01b0319908116909155600282018054821690556003820183905560048201929092556005018054909116905590558561245f8161361d565b965050612313565b50505050505050505050565b6040516001600160a01b03808516602483015283166044820152606481018290526105fb9085906323b872dd60e01b906084015b60408051601f198184030181529190526020810180516001600160e01b03166001600160e01b031990931692909217909152612c15565b60006124ea8284613638565b9392505050565b6001600160a01b0383166125175760405162461bcd60e51b81526004016102f990613690565b6001600160a01b03841661253d5760405162461bcd60e51b81526004016102f9906135ca565b6000851161257d5760405162461bcd60e51b815260206004820152600d60248201526c125b9d985b1a59081a9bd89259609a1b60448201526064016102f9565b6040805160c081018252600080825260208201819052918101829052606081018290526080810182905260a081018290526003549091905b808210156126f257600382815481106125d0576125d06135f1565b60009182526020909120600690910201600201546001600160a01b03163314801561262c575060038281548110612609576126096135f1565b60009182526020909120600160069092020101546001600160a01b038781169116145b801561265b575060038281548110612646576126466135f1565b90600052602060002090600602016000015488145b156126e05760038281548110612673576126736135f1565b60009182526020918290206040805160c08101825260069093029091018054835260018101546001600160a01b0390811694840194909452600281015484169183019190915260038101546060830152600481015460808301526005015490911660a082015292506126f2565b816126ea8161361d565b9250506125b5565b60408301516001600160a01b0316331461273f5760405162461bcd60e51b815260206004820152600e60248201526d131bd8dac81b9bdd08199bdd5b9960921b60448201526064016102f9565b428360800151101561275f5761275788888833611ac5565b5050506105d6565b84836060015110156127a55760405162461bcd60e51b815260206004820152600f60248201526e082dadeeadce840e8dede40d0d2ced608b1b60448201526064016102f9565b506001600160a01b038086166000908152600260209081526040808320938a16835292905290812054905b81811015612906576001600160a01b038781166000908152600260209081526040808320938c16835292905220805433919083908110612812576128126135f1565b60009182526020909120600690910201546001600160a01b031614156128f45760608401516001600160a01b038089166000908152600260209081526040808320938d1683529290522080548390811061286e5761286e6135f1565b9060005260206000209060060201600201600082825461288e91906136b7565b90915550506001600160a01b038088166000908152600260209081526040808320938c16835292905220805460019190839081106128ce576128ce6135f1565b906000526020600020906006020160050160008282546128ee91906136b7565b90915550505b806128fe8161361d565b9150506127d0565b5084836060015161291791906136b7565b6001600160a01b038088166000908152600160209081526040808320938c168352929052908120805490919061294e908490613638565b909155505060608301516001600160a01b038088166000908152600160208181526040808420948d16845293905291812090910180549091906129929084906136b7565b90915550503360009081526001602090815260408083206001600160a01b038b168452909152812080548792906129ca908490613638565b90915550506003546129de906001906136b7565b821015612aa357600380546129f5906001906136b7565b81548110612a0557612a056135f1565b906000526020600020906006020160038381548110612a2657612a266135f1565b60009182526020909120825460069092020190815560018083015490820180546001600160a01b03199081166001600160a01b039384161790915560028085015490840180548316918416919091179055600380850154908401556004808501549084015560059384015493909201805490921692169190911790555b6003805480612ab457612ab46136ce565b6000828152602081206006600019909301928302018181556001810180546001600160a01b0319908116909155600282018054821690556003820183905560048201929092556005018054909116905590556040516001600160a01b0387169033907f77aeb72af8b0efaf7fd8c746d2fb78653ae489dd88dea7a851cb354e4cdc4eed90612b49908c908c908b908b9061373c565b60405180910390a35050505050505050565b3360009081526001602090815260408083206001600160a01b03861684529091529020548111610820573360009081526001602090815260408083206001600160a01b038616845290915281208054839290612bb89084906136b7565b9091555050604080516001600160a01b03841681526020810183905233917f9b1bfa7fa9ee420a16e124f794c35ac9f90472acc99140eb2f6447c714cad8eb910160405180910390a26108206001600160a01b0383163383612cef565b6000612c6a826040518060400160405280602081526020017f5361666545524332303a206c6f772d6c6576656c2063616c6c206661696c6564815250856001600160a01b0316612d1f9092919063ffffffff16565b9050805160001480612c8b575080806020019051810190612c8b9190613773565b612cea5760405162461bcd60e51b815260206004820152602a60248201527f5361666545524332303a204552433230206f7065726174696f6e20646964206e6044820152691bdd081cdd58d8d9595960b21b60648201526084016102f9565b505050565b6040516001600160a01b038316602482015260448101829052612cea90849063a9059cbb60e01b906064016124a7565b6060612d2e8484600085612d36565b949350505050565b606082471015612d975760405162461bcd60e51b815260206004820152602660248201527f416464726573733a20696e73756666696369656e742062616c616e636520666f6044820152651c8818d85b1b60d21b60648201526084016102f9565b600080866001600160a01b03168587604051612db39190613795565b60006040518083038185875af1925050503d8060008114612df0576040519150601f19603f3d011682016040523d82523d6000602084013e612df5565b606091505b5091509150612e0687838387612e11565b979650505050505050565b60608315612e7d578251612e76576001600160a01b0385163b612e765760405162461bcd60e51b815260206004820152601d60248201527f416464726573733a2063616c6c20746f206e6f6e2d636f6e747261637400000060448201526064016102f9565b5081612d2e565b612d2e8383815115612e925781518083602001fd5b8060405162461bcd60e51b81526004016102f991906137b1565b80356001600160a01b0381168114612ec357600080fd5b919050565b600080600080600060a08688031215612ee057600080fd5b612ee986612eac565b9450612ef760208701612eac565b94979496505050506040830135926060810135926080909101359150565b60008060408385031215612f2857600080fd5b612f3183612eac565b9150612f3f60208401612eac565b90509250929050565b60008060008060808587031215612f5e57600080fd5b84359350612f6e60208601612eac565b9250612f7c60408601612eac565b9150612f8a60608601612eac565b905092959194509250565b60008060408385031215612fa857600080fd5b612fb183612eac565b946020939093013593505050565b634e487b7160e01b600052604160045260246000fd5b604051601f8201601f1916810167ffffffffffffffff81118282101715612ffe57612ffe612fbf565b604052919050565b600082601f83011261301757600080fd5b813567ffffffffffffffff81111561303157613031612fbf565b613044601f8201601f1916602001612fd5565b81815284602083860101111561305957600080fd5b816020850160208301376000918101602001919091529392505050565b600080600080600060a0868803121561308e57600080fd5b8535945061309e60208701612eac565b93506130ac60408701612eac565b925060608601359150608086013567ffffffffffffffff8111156130cf57600080fd5b6130db88828901613006565b9150509295509295909350565b600067ffffffffffffffff82111561310257613102612fbf565b5060051b60200190565b600082601f83011261311d57600080fd5b8135602061313261312d836130e8565b612fd5565b82815260059290921b8401810191818101908684111561315157600080fd5b8286015b84811015610d895780358352918301918301613155565b600082601f83011261317d57600080fd5b8135602061318d61312d836130e8565b82815260059290921b840181019181810190868411156131ac57600080fd5b8286015b84811015610d89576131c181612eac565b83529183019183016131b0565b600082601f8301126131df57600080fd5b813560206131ef61312d836130e8565b82815260059290921b8401810191818101908684111561320e57600080fd5b8286015b84811015610d8957803567ffffffffffffffff8111156132325760008081fd5b6132408986838b0101613006565b845250918301918301613212565b600080600080600060a0868803121561326657600080fd5b853567ffffffffffffffff8082111561327e57600080fd5b61328a89838a0161310c565b965060208801359150808211156132a057600080fd5b6132ac89838a0161316c565b955060408801359150808211156132c257600080fd5b6132ce89838a0161316c565b945060608801359150808211156132e457600080fd5b6132f089838a0161310c565b9350608088013591508082111561330657600080fd5b506130db888289016131ce565b60008060006060848603121561332857600080fd5b61333184612eac565b925061333f60208501612eac565b915061334d60408501612eac565b90509250925092565b602080825282518282018190526000919060409081850190868401855b828110156133cf57815180518552868101516001600160a01b039081168887015286820151811687870152606080830151908701526080808301519087015260a091820151169085015260c09093019290850190600101613373565b5091979650505050505050565b600080600080600060a086880312156133f457600080fd5b8535945061340460208701612eac565b935061341260408701612eac565b94979396509394606081013594506080013592915050565b6000806000806080858703121561344057600080fd5b843567ffffffffffffffff8082111561345857600080fd5b6134648883890161310c565b9550602087013591508082111561347a57600080fd5b6134868883890161316c565b9450604087013591508082111561349c57600080fd5b6134a88883890161316c565b935060608701359150808211156134be57600080fd5b506134cb8782880161316c565b91505092959194509250565b602080825282518282018190526000919060409081850190868401855b828110156133cf57815180516001600160a01b0316855286810151878601528581015186860152606080820151908601526080808201519086015260a0908101519085015260c090930192908501906001016134f4565b6000806040838503121561355e57600080fd5b823567ffffffffffffffff8082111561357657600080fd5b6135828683870161316c565b9350602085013591508082111561359857600080fd5b506135a58582860161310c565b9150509250929050565b6000602082840312156135c157600080fd5b6124ea82612eac565b6020808252600d908201526c24b73b30b634b2103a37b5b2b760991b604082015260600190565b634e487b7160e01b600052603260045260246000fd5b634e487b7160e01b600052601160045260246000fd5b600060001982141561363157613631613607565b5060010190565b6000821982111561364b5761364b613607565b500190565b60006020828403121561366257600080fd5b5051919050565b6020808252600d908201526c125b9d985b1a59081a5b9c1d5d609a1b604082015260600190565b6020808252600d908201526c24b73b30b634b2103830bcb2b960991b604082015260600190565b6000828210156136c9576136c9613607565b500390565b634e487b7160e01b600052603160045260246000fd5b60005b838110156136ff5781810151838201526020016136e7565b838111156105fb5750506000910152565b600081518084526137288160208601602086016136e4565b601f01601f19169290920160200192915050565b84815260018060a01b03841660208201528260408201526080606082015260006137696080830184613710565b9695505050505050565b60006020828403121561378557600080fd5b815180151581146124ea57600080fd5b600082516137a78184602087016136e4565b9190910192915050565b6020815260006124ea602083018461371056fea26469706673582212201bc40e3078341763d76cdf956ea6252d629959ffe9a4eaf7b6f4a74b579a699a64736f6c634300080c0033",
  "linkReferences": {},
  "deployedLinkReferences": {}
}